:100000000C9454000C9473000C9473000C947300C3
:100010000C9473000C9473000C9473000C94730094
:100020000C9473000C9473000C9473000C94730084
:100030000C9473000C9473000C9473000C94730074
:100040000C9473000C9473000C9473000C94730064
:100050000C9473000C9473000C9473000C94730054
:100060000C9473000C9473000C9473000C94730044
:100070000C9473000C9473000C9473000C94730034
:100080000C9473000C9473000C9473007301A7011B
:10009000D9010B023A0241024802AD02AD02AD02A3
:1000A000AD0277028602970211241FBECFEFD0E483
:1000B000DEBFCDBF11E0A0E0B1E0E0E5F9E000E097
:1000C0000BBF02C007900D92A033B107D9F721E012
:1000D000A0E3B1E001C01D92A933B207E1F70E948D
:1000E000C9020C94A6040C940000CF93DF9300D0B7
:1000F0001F92CDB7DEB789837B836A8389818A307B
:1001000031F48A819B81BC018DE00E94750080ECF6
:1001100090E0FC018081882F90E080729927892BE4
:10012000B1F386EC90E02981FC01208380E090E02F
:100130000F900F900F90DF91CF9108950F931F9321
:10014000CF93DF9300D000D0CDB7DEB769837A8339
:100150008B839C838091310190913201A091330176
:10016000B09134019C01AD0169817A818B819C81C0
:100170000E941203882309F466C020E030E0A90140
:1001800069817A818B819C810E941203882351F4BA
:1001900081E990E021E930E0F90120812870FC013B
:1001A000208309C081E990E021E930E0F901208154
:1001B0002360FC01208328E539E344E75FE369819C
:1001C0007A818B819C810E941203882344F488E900
:1001D00090E02FEF3FEFFC013183208334C020E01B
:1001E00034E244EF56E469817A818B819C810E94DC
:1001F0003404181634F488E990E0FC01118210826E
:1002000022C008E910E020E030E040E053E46981DA
:100210007A818B819C810E943904DC01CB019C0195
:10022000AD0160E074E284EF9AE40E941703DC0100
:10023000CB01BC01CD010E948903DC01CB010197F8
:10024000F8019183808300000F900F900F900F9022
:10025000DF91CF911F910F910895CF93DF93CDB789
:10026000DEB780E990E020E4FC01208381E990E0A2
:100270002BE0FC01208360E070E0CB010E949E0037
:100280000000DF91CF910895CF93DF93CDB7DEB714
:1002900080E990E0FC01108281E990E0FC0110828D
:1002A0000000DF91CF910895CF93DF9300D01F928C
:1002B000CDB7DEB789836A834B83809137019091F4
:1002C0003801CC01A0E0B0E040E050E026E030E0B2
:1002D000841B950B2817390708F4E1C08A5B9F4FF0
:1002E000FC010C9409038981882369F08A818823A1
:1002F00051F48B81882339F484E090E090933801A5
:100300008093370123C08981882369F48A818823F7
:1003100051F08B81882339F485E090E09093380187
:100320008093370113C08981882309F0C3C08A8173
:10033000882309F0BFC08B81882309F4BBC086E005
:1003400090E09093380180933701B4C0B3C08981A5
:10035000882359F48A81882341F48B81882329F4E6
:10036000109238011092370123C08981882369F4E3
:100370008A81882351F08B81882339F485E090E0CD
:10038000909338018093370113C08981882309F045
:1003900093C08A81882309F08FC08B81882309F458
:1003A0008BC086E090E0909338018093370184C041
:1003B00083C08981882359F48A81882341F48B8101
:1003C000882329F4109238011092370123C08981C3
:1003D000882369F08A81882351F48B81882339F43A
:1003E00084E090E0909338018093370113C08981B5
:1003F000882309F063C08A81882309F05FC08B815C
:10040000882309F45BC086E090E0909338018093E4
:10041000370154C053C08981882359F48A818823C5
:1004200041F48B81882329F410923801109237010E
:1004300020C08981882369F08A81882351F48B81C7
:10044000882339F484E090E0909338018093370159
:1004500010C089818823A1F58A81882389F18B8145
:10046000882371F585E090E09093380180933701FF
:1004700027C026C081E090E0909338018093370137
:1004800020C082E090E0909338018093370119C03A
:1004900083E090E0909338018093370112C010926E
:1004A00038011092370110923601109235010E94E6
:1004B000440107C0000005C0000003C0000001C0E7
:1004C00000008091370190913801CC01A0E0B0E0AC
:1004D00040E050E026E030E0841B950B28173907F8
:1004E00008F440C0835B9F4FFC010C94090380918A
:1004F0003001882319F00E94440102C00E942D019E
:10050000809130018095809330012CC0809135011D
:10051000909136011816190614F5809135019091C5
:1005200036010197909336018093350118C088E019
:1005300090E09C0121503109809135019091360164
:100540008217930774F480913501909136010196DA
:10055000909336018093350104C0000003C0000071
:1005600001C000008091350190913601880F991FDC
:10057000880F991F805F9E4FFC0180819181A2812D
:10058000B381BC01CD010F900F900F90DF91CF91FF
:100590000895CF93DF9300D000D01F92CDB7DEB780
:1005A00081E290E0FC01108282E290E02FEFFC01FA
:1005B000208384E290E02FEFFC01208385E290E02D
:1005C000FC01108219821A821B821C821D8280E229
:1005D00090E0FC0180818095877089838981282F34
:1005E00024708981982F927089818170422F692FA0
:1005F0000E945401DC01CB018A839B83AC83BD83C1
:100600008A819B81AC81BD81BC01CD010E949E008D
:10061000DECFEE0FFF1F0024001C0BBE0790F691EB
:10062000E02D09940E94BF0308F481E008950E9420
:100630002B030C94FA030E94F30358F00E94EC037E
:1006400040F029F45F3F29F00C94E30351110C941E
:100650002E040C94E9030E940B0468F39923B1F370
:10066000552391F3951B550BBB27AA2762177307D8
:10067000840738F09F5F5F4F220F331F441FAA1F6C
:10068000A9F335D00E2E3AF0E0E832D09150504028
:10069000E695001CCAF72BD0FE2F29D0660F771FD6
:1006A000881FBB1F261737074807AB07B0E809F0BC
:1006B000BB0B802DBF01FF2793585F4F3AF09E3F41
:1006C000510578F00C94E3030C942E045F3FE4F39F
:1006D000983ED4F3869577956795B795F7959F5F84
:1006E000C9F7880F911D9695879597F90895E1E0D0
:1006F000660F771F881FBB1F621773078407BA072F
:1007000020F0621B730B840BBA0BEE1F88F7E09589
:1007100008950E9490036894B1110C942E040895DA
:100720000E94130488F09F5798F0B92F9927B7516A
:10073000B0F0E1F0660F771F881F991F1AF0BA9585
:10074000C9F714C0B13091F00E942D04B1E00895B2
:100750000C942D04672F782F8827B85F39F0B93FA4
:10076000CCF3869577956795B395D9F73EF4909538
:100770008095709561957F4F8F4F9F4F0895990F8A
:100780000008550FAA0BE0E8FEEF16161706E8075B
:10079000F907C0F012161306E407F50798F0621B7C
:1007A000730B840B950B39F40A2661F0232B242B51
:1007B000252B21F408950A2609F4A140A6958FEF70
:1007C000811D811D089597F99F6780E870E060E0C2
:1007D00008959FEF80EC089500240A9416161706DA
:1007E00018060906089500240A9412161306140622
:1007F00005060895092E0394000C11F4882352F085
:10080000BB0F40F4BF2B11F460FF04C06F5F7F4F3C
:100810008F4F9F4F089557FD9058440F551F59F023
:100820005F3F71F04795880F97FB991F61F09F3FDD
:1008300079F087950895121613061406551FF2CF06
:100840004695F1DF08C0161617061806991FF1CF56
:1008500086957105610508940895E894BB2766277D
:100860007727CB0197F908950E94BF0308F48FEF13
:1008700008950E944C040C94FA030E94EC0338F093
:100880000E94F30320F0952311F00C94E3030C94E1
:10089000E90311240C942E040E940B0470F3959F1D
:1008A000C1F3950F50E0551F629FF001729FBB2767
:1008B000F00DB11D639FAA27F00DB11DAA1F649F03
:1008C0006627B00DA11D661F829F2227B00DA11DB6
:1008D000621F739FB00DA11D621F839FA00D611D3C
:1008E000221F749F3327A00D611D231F849F600D5D
:1008F000211D822F762F6A2F11249F5750409AF086
:10090000F1F088234AF0EE0FFF1FBB1F661F771F11
:10091000881F91505040A9F79E3F510580F00C94DC
:10092000E3030C942E045F3FE4F3983ED4F38695E2
:1009300077956795B795F795E7959F5FC1F7FE2B7C
:10094000880F911D9695879597F90895F894FFCF94
:100950000000000200000000750000000000080018
:10096000A4D082437BD49243A4D0A443719DAE43D0
:100970000000C4430000DC43A4F0F64300D002446E
:00000001FF
