:100000000C9446000C9465000C9465000C946500FB
:100010000C9465000C9465000C9465000C946500CC
:100020000C9465000C9465000C9465000C946500BC
:100030000C9465000C9465000C9465000C946500AC
:100040000C9465000C9465000C9465000C9465009C
:100050000C9465000C9465000C9465000C9465008C
:100060000C9465000C9465000C9465000C9465007C
:100070000C9465000C9465000C9465000C9465006C
:100080000C9465000C9465000C94650011241FBE4F
:10009000CFEFD0E4DEBFCDBF11E0A0E0B1E0E2E100
:1000A000F8E000E00BBF02C007900D92A035B10749
:1000B000D9F721E0A0E5B1E001C01D92AA35B20751
:1000C000E1F70E943C020C9407040C940000CF93CB
:1000D000DF9300D01F92CDB7DEB789837B836A831D
:1000E00089818A3031F48A819B81BC018DE00E9434
:1000F000670080EC90E0FC018081882F90E08072A6
:100100009927892BB1F386EC90E02981FC012083AB
:1001100080E090E00F900F900F90DF91CF910895C5
:100120000F931F93CF93DF9300D000D0CDB7DEB7EE
:1001300069837A838B839C838091510190915201D2
:10014000A0915301B09154019C01AD0169817A8164
:100150008B819C810E947302882309F466C020E091
:1001600030E0A90169817A818B819C810E947302B0
:10017000882351F481E990E021E930E0F901208100
:100180002870FC01208309C081E990E021E930E07A
:10019000F90120812360FC01208328E539E344E74D
:1001A0005FE369817A818B819C810E94730288233D
:1001B00044F488E990E02FEF3FEFFC013183208386
:1001C00034C020E034E244EF56E469817A818B81C7
:1001D0009C810E949503181634F488E990E0FC0194
:1001E0001182108222C008E910E020E030E040E0F7
:1001F00053E469817A818B819C810E949A03DC019E
:10020000CB019C01AD0160E074E284EF9AE40E94AE
:100210007802DC01CB01BC01CD010E94EA02DC01C5
:10022000CB010197F8019183808300000F900F901C
:100230000F900F90DF91CF911F910F910895CF9361
:10024000DF93CDB7DEB780E990E020E4FC012083A6
:1002500081E990E02BE0FC01208360E070E0CB01BD
:100260000E9490000000DF91CF910895CF93DF931B
:10027000CDB7DEB780E990E0FC01108281E990E023
:10028000FC0110820000DF91CF910895CF93DF939E
:100290001F92CDB7DEB789838091580190915901A3
:1002A0008230910509F466C08330910528F40097E7
:1002B00059F0019751F173C08330910509F461C081
:1002C000049709F465C06BC08981813039F482E0FC
:1002D00090E0909359018093580113C08981823036
:1002E00039F483E090E0909359018093580109C05C
:1002F0008981843031F484E090E0909359018093B7
:10030000580189818093550157C090915501898189
:10031000981739F481E090E0909359018093580147
:1003200025C08981882329F410925901109258011F
:100330001DC08981813039F482E090E090935901A9
:100340008093580113C08981823039F483E090E0B2
:10035000909359018093580109C08981843031F408
:1003600084E090E0909359018093580189818093B3
:10037000550122C081E090E090935901809358018B
:100380001BC081E090E0909359018093580114C004
:1003900081E090E090935901809358010DC0109234
:1003A0005901109258011092550110925701109264
:1003B00056010E9436010000809158019091590128
:1003C0008230910549F083309105E0F18330910549
:1003D00091F0049709F13BC080915001882319F0F6
:1003E0000E94360102C00E941F0180915001809539
:1003F000809350012CC0809156019091570118169E
:10040000190614F580915601909157010197909328
:1004100057018093560118C080E190E09C01215063
:10042000310980915601909157018217930774F416
:1004300080915601909157010196909357018093B6
:10044000560104C0000003C0000001C000008091FC
:10045000560190915701880F991F880F991F805F4F
:100460009E4FFC0180819181A281B381BC01CD01AD
:100470000F90DF91CF910895CF93DF9300D000D0FC
:100480001F92CDB7DEB781E290E0FC01108282E2DC
:1004900090E02FEFFC01208384E290E02FEFFC013D
:1004A000208385E290E0FC01108219821A821B826F
:1004B0001C821D8280E290E0FC0180818095877023
:1004C000898389810E944601DC01CB018A839B8359
:1004D000AC83BD838A819B81AC81BD81BC01CD0190
:1004E0000E949000E7CF0E94200308F481E0089565
:1004F0000E948C020C945B030E94540358F00E94EB
:100500004D0340F029F45F3F29F00C94440351114E
:100510000C948F030C944A030E946C0368F3992394
:10052000B1F3552391F3951B550BBB27AA276217EF
:100530007307840738F09F5F5F4F220F331F441FFC
:10054000AA1FA9F335D00E2E3AF0E0E832D0915030
:100550005040E695001CCAF72BD0FE2F29D0660F1D
:10056000771F881FBB1F261737074807AB07B0E860
:1005700009F0BB0B802DBF01FF2793585F4F3AF066
:100580009E3F510578F00C9444030C948F035F3F19
:10059000E4F3983ED4F3869577956795B795F795EC
:1005A0009F5FC9F7880F911D9695879597F90895D4
:1005B000E1E0660F771F881FBB1F62177307840770
:1005C000BA0720F0621B730B840BBA0BEE1F88F77F
:1005D000E09508950E94F1026894B1110C948F0384
:1005E00008950E94740388F09F5798F0B92F9927B7
:1005F000B751B0F0E1F0660F771F881F991F1AF00E
:10060000BA95C9F714C0B13091F00E948E03B1E0E1
:1006100008950C948E03672F782F8827B85F39F0E0
:10062000B93FCCF3869577956795B395D9F73EF4A6
:1006300090958095709561957F4F8F4F9F4F08954E
:10064000990F0008550FAA0BE0E8FEEF16161706E3
:10065000E807F907C0F012161306E407F50798F04B
:10066000621B730B840B950B39F40A2661F0232B64
:10067000242B252B21F408950A2609F4A140A695E0
:100680008FEF811D811D089597F99F6780E870E0C5
:1006900060E008959FEF80EC089500240A941616F8
:1006A000170618060906089500240A941216130660
:1006B000140605060895092E0394000C11F48823EE
:1006C00052F0BB0F40F4BF2B11F460FF04C06F5F0A
:1006D0007F4F8F4F9F4F089557FD9058440F551FE0
:1006E00059F05F3F71F04795880F97FB991F61F0B4
:1006F0009F3F79F087950895121613061406551F2B
:10070000F2CF4695F1DF08C0161617061806991F96
:10071000F1CF86957105610508940895E894BB278B
:1007200066277727CB0197F908950E94200308F4E4
:100730008FEF08950E94AD030C945B030E944D035C
:1007400038F00E94540320F0952311F00C944403D8
:100750000C944A0311240C948F030E946C0370F3D1
:10076000959FC1F3950F50E0551F629FF001729F56
:10077000BB27F00DB11D639FAA27F00DB11DAA1F65
:10078000649F6627B00DA11D661F829F2227B00DB2
:10079000A11D621F739FB00DA11D621F839FA00D3D
:1007A000611D221F749F3327A00D611D231F849F8D
:1007B000600D211D822F762F6A2F11249F575040E4
:1007C0009AF0F1F088234AF0EE0FFF1FBB1F661F5F
:1007D000771F881F91505040A9F79E3F510580F028
:1007E0000C9444030C948F035F3FE4F3983ED4F3DE
:1007F000869577956795B795F795E7959F5FC1F7CC
:10080000FE2B880F911D9695879597F90895F8947A
:02081000FFCF18
:10081200000000020000000067000000000010005D
:10082200719DAE430000C443A4D082430000C44380
:100832000000DC4300D00244A4F0F6430000DC4395
:10084200719DAE430000C443A4D08243A4D082432E
:10085200A4D082437BD49243A4D0A443719DAE43DF
:00000001FF
