:100000000C9446000C9465000C9465000C946500FB
:100010000C9465000C9465000C9465000C946500CC
:100020000C9465000C9465000C9465000C946500BC
:100030000C9465000C9465000C9465000C946500AC
:100040000C9465000C9465000C9465000C9465009C
:100050000C9465000C9465000C9465000C9465008C
:100060000C9465000C9465000C9465000C9465007C
:100070000C9465000C9465000C9465000C9465006C
:100080000C9465000C9465000C94650011241FBE4F
:10009000CFEFD0E4DEBFCDBF11E0A0E0B1E0E6ECF1
:1000A000F8E000E00BBF02C007900D92AE30B10740
:1000B000D9F721E0AEE0B1E001C01D92A431B20752
:1000C000E1F70E948D020C9461040C940000CF9320
:1000D000DF9300D01F92CDB7DEB789837B836A831D
:1000E00089818A3031F48A819B81BC018DE00E9434
:1000F000670080EC90E0FC018081882F90E08072A6
:100100009927892BB1F386EC90E02981FC012083AB
:1001100080E090E00F900F900F90DF91CF910895C5
:100120000F931F93CF93DF9300D000D0CDB7DEB7EE
:1001300069837A838B839C8380910E0190910F0158
:10014000A0911001B09111019C01AD0169817A81EA
:100150008B819C810E94CD02882309F466C020E037
:1001600030E0A90169817A818B819C810E94CD0256
:10017000882351F481E990E021E930E0F901208100
:100180002870FC01208309C081E990E021E930E07A
:10019000F90120812360FC01208328E539E344E74D
:1001A0005FE369817A818B819C810E94CD028823E3
:1001B00044F488E990E02FEF3FEFFC013183208386
:1001C00034C020E034E244EF56E469817A818B81C7
:1001D0009C810E94EF03181634F488E990E0FC013A
:1001E0001182108222C008E910E020E030E040E0F7
:1001F00053E469817A818B819C810E94F403DC0144
:10020000CB019C01AD0160E074E284EF9AE40E94AE
:10021000D202DC01CB01BC01CD010E944403DC0110
:10022000CB010197F8019183808300000F900F901C
:100230000F900F90DF91CF911F910F910895CF9361
:10024000DF93CDB7DEB780E990E020E4FC012083A6
:1002500081E990E02BE0FC01208360E070E0CB01BD
:100260000E9490000000DF91CF910895CF93DF931B
:10027000CDB7DEB780E990E0FC01108281E990E023
:10028000FC0110820000DF91CF910895CF93DF939E
:10029000CDB7DEB727970FB6F894DEBF0FBECDBF40
:1002A0008D836E834F8319821A821B821C828091F8
:1002B0001201909113018130910509F43FC0813002
:1002C000910540F08230910509F46EC0039709F45E
:1002D000A1C0D6C08D81882369F08E81882351F416
:1002E0008F81882339F481E090E09093130180930B
:1002F000120123C08D81882369F48E81882351F0F7
:100300008F81882339F482E090E0909313018093E9
:10031000120113C08D81882309F0B7C08E81882314
:1003200009F0B3C08F81882309F4AFC083E090E067
:100330009093130180931201A8C0A7C08D818823D8
:1003400069F08E81882351F48F81882339F481E00C
:1003500090E0909313018093120125C08D81882332
:1003600069F48E81882351F08F81882339F482E0EB
:1003700090E0909313018093120115C08D81882322
:1003800069F48E81882351F48F81882339F083E0CA
:1003900090E0909313018093120105C01092130115
:1003A0001092120173C072C08D81882369F08E8112
:1003B000882351F48F81882339F481E090E0909371
:1003C00013018093120125C08D81882369F48E81E9
:1003D000882351F08F81882339F482E090E0909354
:1003E00013018093120115C08D81882369F48E81D9
:1003F000882351F48F81882339F083E090E0909333
:1004000013018093120105C0109213011092120182
:100410003DC03CC08D81882369F08E81882351F4D2
:100420008F81882339F481E090E0909313018093C9
:10043000120125C08D81882369F48E81882351F0B3
:100440008F81882339F482E090E0909313018093A8
:10045000120115C08D81882369F48E81882351F49F
:100460008F81882339F083E090E09093130180938B
:10047000120105C0109213011092120107C006C0AC
:10048000109213011092120101C00000809112011C
:10049000909113018130910581F08130910530F008
:1004A00082309105A9F00397F1F028C00E9436012F
:1004B00019821A821B821C8221C00E941F0184EAB9
:1004C00090EDA2E8B3E489839A83AB83BC8316C022
:1004D0000E941F018BE794EDA2E9B3E489839A831C
:1004E000AB83BC830BC00E941F0184EA90EDA4EA99
:1004F000B3E489839A83AB83BC83000089819A81AA
:10050000AB81BC81BC01CD0127960FB6F894DEBF4C
:100510000FBECDBFDF91CF910895CF93DF9300D071
:1005200000D01F92CDB7DEB781E290E0FC011082CF
:1005300082E290E02FEFFC01208384E290E02FEF35
:10054000FC01208385E290E0FC01108219821A826E
:100550001B821C821D8280E290E0FC0180818095DC
:10056000877089838981282F24708981982F9270C0
:1005700089818170422F692F0E944601DC01CB01E5
:100580008A839B83AC83BD838A819B81AC81BD813F
:10059000BC01CD010E949000DECF0E947A0308F4D6
:1005A00081E008950E94E6020C94B5030E94AE0318
:1005B00058F00E94A70340F029F45F3F29F00C9403
:1005C0009E0351110C94E9030C94A4030E94C603EA
:1005D00068F39923B1F3552391F3951B550BBB2772
:1005E000AA2762177307840738F09F5F5F4F220FB7
:1005F000331F441FAA1FA9F335D00E2E3AF0E0E8AE
:1006000032D091505040E695001CCAF72BD0FE2FF7
:1006100029D0660F771F881FBB1F2617370748078B
:10062000AB07B0E809F0BB0B802DBF01FF27935843
:100630005F4F3AF09E3F510578F00C949E030C9466
:10064000E9035F3FE4F3983ED4F386957795679589
:10065000B795F7959F5FC9F7880F911D9695879578
:1006600097F90895E1E0660F771F881FBB1F621797
:1006700073078407BA0720F0621B730B840BBA0B55
:10068000EE1F88F7E09508950E944B036894B1111E
:100690000C94E90308950E94CE0388F09F5798F0C8
:1006A000B92F9927B751B0F0E1F0660F771F881F77
:1006B000991F1AF0BA95C9F714C0B13091F00E9491
:1006C000E803B1E008950C94E803672F782F88279A
:1006D000B85F39F0B93FCCF3869577956795B395B8
:1006E000D9F73EF490958095709561957F4F8F4F27
:1006F0009F4F0895990F0008550FAA0BE0E8FEEFF1
:1007000016161706E807F907C0F012161306E407D5
:10071000F50798F0621B730B840B950B39F40A26CE
:1007200061F0232B242B252B21F408950A2609F4AC
:10073000A140A6958FEF811D811D089597F99F67B0
:1007400080E870E060E008959FEF80EC0895002459
:100750000A941616170618060906089500240A9426
:1007600012161306140605060895092E0394000CAC
:1007700011F4882352F0BB0F40F4BF2B11F460FF3B
:1007800004C06F5F7F4F8F4F9F4F089557FD905864
:10079000440F551F59F05F3F71F04795880F97FB45
:1007A000991F61F09F3F79F08795089512161306FF
:1007B0001406551FF2CF4695F1DF08C0161617062E
:1007C0001806991FF1CF8695710561050894089563
:1007D000E894BB2766277727CB0197F908950E94F5
:1007E0007A0308F48FEF08950E9407040C94B50370
:1007F0000E94A70338F00E94AE0320F0952311F069
:100800000C949E030C94A40311240C94E9030E94FD
:10081000C60370F3959FC1F3950F50E0551F629F7B
:10082000F001729FBB27F00DB11D639FAA27F00D49
:10083000B11DAA1F649F6627B00DA11D661F829F70
:100840002227B00DA11D621F739FB00DA11D621F55
:10085000839FA00D611D221F749F3327A00D611D72
:10086000231F849F600D211D822F762F6A2F112454
:100870009F5750409AF0F1F088234AF0EE0FFF1F87
:10088000BB1F661F771F881F91505040A9F79E3FDE
:10089000510580F00C949E030C94E9035F3FE4F350
:1008A000983ED4F3869577956795B795F795E79534
:1008B0009F5FC1F7FE2B880F911D9695879597F93D
:0608C0000895F894FFCF3B
:0E08C6000000000200000000670000000000BB
:00000001FF
